:020000040800F2
:10000000081000201D000008A1000008A100000841
:10001000A1000008A1000008A100000880B588B078
:1000200000AF1A4A1A4BD31ABB601A4A1A4BD31A9A
:100030007B601A4BFB61164BBB61174B7B61002346
:100040003B610AE0FA69531CFB61BB69591CB96149
:1000500012781A703B6901333B613A69BB689A4276
:10006000F0D30023FB6007E07B695A1C7A61002211
:100070001A70FB680133FB60FA687B689A42F3D31D
:1000800000F014F800BF2037BD4680BD08000020F6
:10009000000000200800002008000020C001000827
:1000A00080B500AFFFF7BAFF00BF80BD90B585B047
:1000B00000AF00F04FF800F03FF81D4B1A681368CE
:1000C00043F0010313604FF000034FF00004C7E951
:1000D000023406E0D7E90234591C44F10002C7E9B2
:1000E0000212D7E9023413494FF00002A24208BFBE
:1000F0009942EFD20E4B1A6813686FF30003136036
:100100004FF000034FF00004C7E9003406E0D7E9E0
:100110000034591C44F10002C7E90012D7E9003449
:1001200004494FF00002A24208BF9942EFD2C4E74F
:1001300000000020A086010080B400AF044B1B68C3
:10014000034A43F00103136000BFBD4680BC704703
:100150000008014080B400AF164B1B68154A43F4F9
:10016000C0131360134B1B68124A43F00203136061
:10017000114B1B68104A43F0807313600D4B1B68D2
:100180000C4A43F4806313600A4B1B68094A43F42A
:1001900020531360074B1B68064A23F0F0031360DB
:1001A000064B1B68054A43F00403136000BFBD46BD
:1001B00080BC70470410024000100240181002403A
:0801C0000C0801400808014091
:0400000508000000EF
:00000001FF
