:100000000C942A000C9447000C9447000C94470071
:100010000C9447000C9447000C9447000C94470044
:100020000C9447000C9447000C9447000C94470034
:100030000C9447000C9447000C9447000C94470024
:100040000C9447000C9447000C9447000C94470014
:100050000C94470011241FBECFE5D8E0DEBFCDBF12
:1000600010E0A0E6B0E0E8EEF6E002C005900D92E8
:10007000AE36B107D9F710E0AEE6B0E001C01D9290
:10008000A037B107E1F70E944E000C9472030C9464
:1000900000008FEF87BB80EF8ABB08951F930E94FB
:1000A000490088E062E044E00E94ED008DE090E0CD
:1000B0000E944C0180E690E00E94170280EC90E0E4
:1000C0000E944C0128E833E149E150E0CA01019760
:1000D000F1F721503040D1F78CE190E00E944C01C3
:1000E00028E833E149E150E0CA010197F1F72150D6
:1000F0003040D1F78CE190E00E944C0128E833E1D8
:1001000049E150E0CA010197F1F721503040D1F7A1
:1001100088E190E00E944C0128E833E149E150E099
:10012000CA010197F1F721503040D1F788E190E002
:100130000E944C0128E833E149E150E0CA010197EF
:10014000F1F721503040D1F78BE390E00E94980204
:10015000182F833629F484E190E00E944C01F4CFFB
:10016000882391F382E065E00E947F01812F0E9445
:10017000E401EACFE8E3F0E0808181608083808160
:100180008E7F808308950F931F9308E310E0F8019A
:1001900080818F7080838081808380818B7F80834A
:1001A00080818D7F80830E94BA00F80180818F70EA
:1001B000808380818062808380818B7F8083808147
:1001C0008D7F808380818B7F808380818D7F808302
:1001D0000E94BA001F910F910895EF92FF920F9322
:1001E0001F93883021F4EE246894E5F808C08A3023
:1001F00029F40F2EF4E2EF2EF02D01C0EE24613031
:1002000021F4FF246894F5F808C0623029F40F2E19
:10021000F8E2FF2EF02D01C0FF24443021F04830D9
:10022000C9F520E303C00E94C30020E208E310E008
:10023000F80180818B7F808380818D7F80838081A6
:100240008F70808390818F2D8E29F82EF22A8F2D2A
:10025000807F892B808380818B7F808380818D7FCD
:1002600080830E94BA00F80180818F708083808132
:100270009F2D9295907F892B808380818B7F8083B7
:1002800080818D7F80830E94BA001F910F91FF9023
:10029000EF90089520E0CACFFF920F931F93F82E9E
:1002A00008E310E0F80180818B7F808380818D7F5F
:1002B000808380818F70808390818F2D807F892BB8
:1002C000808380818B7F808380818D7F80830E946B
:1002D000BA00F80180818F70808380819F2D929574
:1002E000907F892B808380818B7F808380818D7F2D
:1002F00080830E94BA001F910F91FF900895FF9292
:100300000F931F93F62E813069F508E310E0F80192
:1003100080818B7F808380818D7F808380818F70BF
:10032000808380818068962F9077892B808380815D
:100330008B7F808380818D7F80830E94BA00F8014B
:1003400080818F70808390818F2D8295807F892B13
:10035000808380818B7F808380818D7F80830E94DA
:10036000BA002EC0823061F508E310E0F801808108
:100370008B7F808380818D7F808380818F7080835D
:100380008081806C962F9073892B808380818B7FF6
:10039000808380818D7F80830E94BA00F8018081F4
:1003A0008F70808390818F2D8295807F892B8083B1
:1003B00080818B7F808380818D7F80830E94BA00C3
:1003C0001F910F91FF900895FF920F931F93F82EA6
:1003D00008E310E0F80180818F70808390818F2D79
:1003E000807F892B808380818460808380818D7F62
:1003F00080830E94BA00F80180818F7080838081A1
:100400009F2D9295907F892B80838081846080834B
:1004100080818D7F808380818460808380818D7FD7
:1004200080830E94BA001F910F91FF900895EF9270
:10043000FF920F931F93CF93DF938C01FC012081D8
:100440002223A1F17C010894E11CF11CC8E3D0E057
:1004500088818F7088839881822F807F892B888301
:1004600088818460888388818D7F88830E94BA0018
:1004700088818F7088839881F80180818295807F40
:10048000892B888388818460888388818D7F888395
:1004900088818460888388818D7F88830E94BA00E8
:1004A0008701F70121917F01222391F6DF91CF91FE
:1004B0001F910F91FF90EF90089585309105A9F05D
:1004C0008630910518F4049751F506C086309105E1
:1004D000A9F0079721F51BC0EBE3F0E08081806174
:1004E000808380818F7780830895EBE3F0E08081C3
:1004F0008062808380818F7E80830895EBE3F0E0CB
:1005000080818064808380818F7D80830895EBE388
:10051000F0E080818068808380818F7B8083089574
:10052000FC013297808190E086179707D9F30895F0
:100530000F931F93CF93DF938C01EBE3F0E0808167
:100540008F70808384E090E0B8010E945D02E80132
:100550002297888180936E0010926F00888181318C
:1005600039F4C80161E170E00E94900287E3B5C0F0
:100570008881823139F4C80162E170E00E94900202
:1005800084E3ABC08881843139F4C80164E170E050
:100590000E94900281E3A1C08881883139F4C801AA
:1005A00068E170E00E94900283E697C085E090E0E9
:1005B000B8010E945D02888180936E0010926F00E6
:1005C0008881813239F4C80161E270E00E949002B2
:1005D00088E383C08881823239F4C80162E270E026
:1005E0000E94900285E379C08881843239F4C80181
:1005F00064E270E00E94900282E36FC088818832DA
:1006000039F4C80168E270E00E94900280E365C09E
:1006100086E090E0B8010E945D02888180936E00C0
:1006200010926F008881813439F4C80161E470E070
:100630000E94900289E351C08881823439F4C80154
:1006400062E470E00E94900286E347C088818434AF
:1006500039F4C80164E470E00E94900283E33DC075
:100660008881883439F4C80168E470E00E949002FF
:100670008DE333C087E090E0B8010E945D0288817D
:1006800080936E0010926F008881813839F4C80120
:1006900061E870E00E9490028FE21FC0888182387A
:1006A00039F4C80162E870E00E94900288E515C044
:1006B0008881843839F4C80164E870E00E949002AF
:1006C0008DE20BC08881883811F080E006C0C80137
:1006D00068E870E00E9490028BE2DF91CF911F9159
:0806E0000F910895F894FFCF7B
:0E06E80041544D4547413332204D43550000EB
:00000001FF
