:100000000C942A000C9436000C9460000C948A0026
:100010000C9434000C9434000C9434000C94340090
:100020000C9434000C9434000C9434000C94340080
:100030000C9434000C9434000C9434000C94340070
:100040000C9434000C9434000C9434000C94340060
:100050000C94340011241FBECFE5D8E0DEBFCDBF25
:100060000E94D1000C94E9000C9400001F920F92A2
:100070000FB60F9211242F933F934F935F938F935B
:100080009F93EF93FF93E8E3F0E0808191E089276D
:10009000808320E137E249E150E0CA010197F1F79E
:1000A00021503040D1F7FF91EF919F918F915F9157
:1000B0004F913F912F910F900FBE0F901F90189569
:1000C0001F920F920FB60F9211242F933F934F93CD
:1000D0005F938F939F93EF93FF93E8E3F0E080812A
:1000E00092E08927808320E137E249E150E0CA01AC
:1000F0000197F1F721503040D1F7FF91EF919F9197
:100100008F915F914F913F912F910F900FBE0F9064
:100110001F9018951F920F920FB60F9211242F93D4
:100120003F934F935F938F939F93EF93FF93E8E3F6
:10013000F0E0808198E08927808320E137E249E17F
:1001400050E0CA010197F1F721503040D1F7FF91FB
:10015000EF919F918F915F914F913F912F910F90D0
:100160000FBE0F901F901895EFE5F0E0808180683A
:100170008083EBE5F0E08081806E8083E5E5F0E050
:1001800080818D60808380818D7F8083E4E5F0E0D5
:1001900080818F7B8083E8E3F0E08081847F8083AF
:1001A0000895E7E3F0E080818B60808380818B7F1E
:1001B0008083E1E3F0E080818B7F80838081877F93
:1001C00080830E94B400E8E3F0E08081847F808334
:0601D000FCCFF894FFCF04
:00000001FF
