:020000040800F2
:1000000000280020CD0700086D07000879070008C8
:100010007F070008850700088B0700080000000024
:100020000000000000000000000000009107000830
:100030009D07000800000000A9070008B507000898
:10004000150800081508000815080008150800081C
:10005000150800081508000815080008150800080C
:1000600015080008150800081508000815080008FC
:1000700015080008150800081508000815080008EC
:1000800015080008150800081508000815080008DC
:1000900015080008150800081508000815080008CC
:1000A00015080008150800081508000815080008BC
:1000B00015080008150800080000000015080008D1
:1000C0001508000800000000000000009D05000861
:1000D00000000000150800081508000800000000D6
:1000E00015080008150800081508000800000000A1
:1000F0000000000000000000000000000000000000
:0C01000000000000000000005FF808F1A3
:10010C0010B5054C237833B9044B13B10448AFF345
:10011C0000800123237010BD1C0000200000000093
:10012C008408000808B5034B1BB103490348AFF31F
:10013C00008008BD0000000020000020840800089A
:10014C0080B485B000AFF860B9607A603B60BB6882
:10015C00072B15D8FB681B68BA6892000F2101FAAF
:10016C0002F2D2431A40FB681A60FB681A68BB683B
:10017C009B00796801FA03F31A43FB681A6020E0CC
:10018C00BB68072B1DD9BB680F2B1AD8FB685A68A4
:10019C00BB6803F18043083B9B000F2101FA03F37A
:1001AC00DB431A40FB685A60FB685A68BB6803F172
:1001BC008043083B9B00796801FA03F31A43FB6800
:1001CC005A607B68082B19D13B68002B0AD1FB685D
:1001DC00DA680121BB6801FA03F3DB431A40FB68C0
:1001EC00DA600BE03B68012B08D1FB68DA6801216F
:1001FC00BB6801FA03F31A43FB68DA6000BF1437DB
:10020C00BD4680BC704780B485B000AFF860B96063
:10021C007A60BB68072B15D8FB681B68BA6892001C
:10022C000F2101FA02F2D2431A40FB681A60FB68F4
:10023C001A68BB689B00796801FA03F31A43FB68E0
:10024C001A6020E0BB68072B1DD9BB680F2B1AD88E
:10025C00FB685A68BB6803F18043083B9B000F2185
:10026C0001FA03F3DB431A40FB685A60FB685A68D7
:10027C00BB6803F18043083B9B00796801FA03F3E8
:10028C001A43FB685A6000BF1437BD4680BC7047E8
:10029C0080B483B000AF786039607B681B681B0C3E
:1002AC001B047A6813607B685B681B0C1B047A6800
:1002BC0053607B683A681A607B683A685A6000BF82
:1002CC000C37BD4680BC704780B483B000AF7860FB
:1002DC0039607B683A68DA6000BF0C37BD4680BC79
:1002EC007047000080B584B000AF7860396000239F
:1002FC00FB810023BB817B68474A934209D1474A63
:10030C003B681360464B9B69454A43F480539361A9
:10031C000CE07B68434A934208D1404A3B685360E7
:10032C003F4BDB693E4A43F48043D3613B68DA8937
:10033C00FB891343FB813B681A88FB891343FB81C0
:10034C003B685A88FB891343FB813B681A89FB89FC
:10035C001343FB813B68DA88FB891343FB813B68C1
:10036C005A89FB891343FB813B689B89002B02D183
:10037C000023BB811FE03B689B89042B04D1BB8904
:10038C0043F00403BB8116E03B689B89002B12D021
:10039C003B689B89B3F5407F04D1FB8943F44073E0
:1003AC00FB8108E03B689B89B3F5007F03D1FB8997
:1003BC0043F40073FB813B689A88FB891343FB81F0
:1003CC003B681B8A002B19D03B681A8ABB891343E4
:1003DC00BB817B68104A934206D1134B1B68124AAF
:1003EC0043F00803136009E07B680E4A934205D181
:1003FC000D4B1B680C4A43F010031360786800F037
:10040C0015F8FA897B681A60BA897B685A6000BF54
:10041C001037BD4680BD00BF0030014038000020C1
:10042C00001002400038014004E100E080B582B0C9
:10043C0000AF78607B683D4A934237D13C4B5B6898
:10044C005B88042B15D10A220D213A48FFF7DBFEFD
:10045C000A220F213748FFF7D6FE002304220E2173
:10046C003448FFF76DFE0A220C213248FFF7CBFE11
:10047C0057E02F4B5B685B88002B52D10023042282
:10048C000D212C48FFF75CFE002304220F21294884
:10049C00FFF756FE0A220E212648FFF7B4FE002372
:1004AC0004220C212348FFF74BFE3AE07B68224ADA
:1004BC00934236D11E4B1B685B88042B15D10A2244
:1004CC0005211E48FFF79FFE0A2207211B48FFF754
:1004DC009AFE0023042206211848FFF731FE0A2257
:1004EC0004211648FFF78FFE1BE0114B1B685B883D
:1004FC00002B16D10023042205211048FFF720FE03
:10050C000023042207210D48FFF71AFE0A220621B8
:10051C000A48FFF778FE0023042204210748FFF75E
:10052C000FFE00BF0837BD4680BD00BF003801403C
:10053C0038000020000C0140003001400008014050
:10054C0080B483B000AF78600B467B8013467B7021
:10055C007B78012B06D100BF7B689B6803F00203FC
:10056C00002BF9D07A887B68DA607B78012B06D176
:10057C0000BF7B689B6803F00103002BF9D07B68FC
:10058C00DB689BB218460C37BD4680BC7047000038
:10059C0080B500AF124B9B6803F00203002B0BD00D
:1005AC00104A137843F0010313700F4B1B685B69FF
:1005BC000C4A1078984710E0094B9B6803F0010334
:1005CC00002B0AD0074A137843F002031370064B32
:1005DC001B685B69034A1078984700BF80BD00BF59
:1005EC0000300140400000203800002090B587B05A
:1005FC0000AF0023FB8200F07FF800F08BF82C4951
:10060C002C48FFF76FFEFB8A5A1CFA821C4601220B
:10061C0077212848FFF794FF03461A46630007F139
:10062C0018010B4423F8182CFB8A5A1CFA821C461E
:10063C00012255211F48FFF783FF03461A4663002A
:10064C0007F118010B4423F8182CFB8A5A1CFA8268
:10065C001C46012233211748FFF772FF03461A4646
:10066C00630007F118010B4423F8182CFC8A0122B3
:10067C0011211048FFF764FF03461A46630007F187
:10068C0018010B4423F8182CFB8A5B0007F11802A5
:10069C00134433F8183C19460748FFF715FE4FF47E
:1006AC007A7000F00BF8FB8A013BFB82ECE700BF91
:1006BC000000002000300140000C014080B485B0E7
:1006CC0000AF78600023FB600DE00023BB6002E00C
:1006DC00BB680133BB60BB6840F211229342F7DD6B
:1006EC00FB680133FB60FA687B689A42EDDB00BF64
:1006FC001437BD4680BC704780B400AF044B9B6977
:10070C00034A43F01D03936100BFBD4680BC704794
:10071C000010024080B500AF4FF022310748FFF7C0
:10072C00B7FD02220A210648FFF76DFD02220B21BC
:10073C000348FFF768FD00BF80BD00BF000C0140FF
:10074C000008014080B483B000AF38713B7903F0EE
:10075C000103DBB2002B00BF0C37BD4680BC7047D9
:10076C0080B400AF00BFBD4680BC704780B400AF02
:10077C00FEE780B400AFFEE780B400AFFEE780B4C4
:10078C0000AFFEE780B400AF00BFBD4680BC704731
:10079C0080B400AF00BFBD4680BC704780B400AFD2
:1007AC0000BFBD4680BC704780B500AF00F02EF88E
:1007BC0000BF80BD80B400AF00BFBD4680BC704799
:1007CC000C480D490D4A002302E0D458C4500433A0
:1007DC00C4188C42F9D30A4A0A4C002301E0136076
:1007EC000432A242FBD3FFF7E5FF00F021F8FFF73C
:1007FC00FDFE7047000000201C000020A40800082B
:10080C001C00002048000020FEE7000080B400AF70
:10081C00054B1B781A46054B1B681344034A13609F
:10082C0000BFBD4680BC704718000020440000206B
:10083C0070B500250C4E0D4CA41BA410A54209D17B
:10084C0000F01AF800250A4E0A4CA41BA410A5426D
:10085C0005D170BD56F8253098470135EEE756F8AE
:10086C00253098470135F2E79C0800089C080008E1
:10087C009C080008A0080008F8B500BFF8BC08BC2C
:10088C009E467047F8B500BFF8BC08BC9E46704742
:04089C00310100081E
:0408A0000D0100083E
:1008A4000000000020000000000080000000400064
:0C08B400000000005107000801000000D7
:04000005080007CD1B
:00000001FF
