:020000040800F2
:10000000101000201D000008A1000008A100000839
:10001000A1000008A1000008A100000880B588B078
:1000200000AF1A4A1A4BD31ABB601A4A1A4BD31A9A
:100030007B601A4BFB61164BBB61174B7B61002346
:100040003B610AE0FA69531CFB61BB69591CB96149
:1000500012781A703B6901333B613A69BB689A4276
:10006000F0D30023FB6007E07B695A1C7A61002211
:100070001A70FB680133FB60FA687B689A42F3D31D
:1000800000F084F800BF2037BD4680BD000000208E
:1000900000000020100000200000002038030008AD
:1000A00080B500AFFFF7BAFF00BF80BD90B482B04B
:1000B00000AF174B1B68164A43F0040313604FF060
:1000C00000034FF00004C7E9003406E0D7E900342C
:1000D000591C44F10002C7E90012D7E9003441F28B
:1000E00088314FF00002A24208BF9942EED2094B7C
:1000F0001B68084B00221A60064B1B68054A43F038
:100100008833136000BF0837BD4690BC704700BFFE
:10011000181002400008014090B482B000AF1CE00B
:100120004FF000034FF00004C7E9003406E0D7E9C0
:100130000034591C44F10002C7E90012D7E9003429
:1001400047F230514FF00002A24208BF9942EED26E
:100150000B4B1B6801330A4A1360094B1B68642B65
:10016000DED9074B00221A60064B1B68064A136053
:10017000054B1B6818460837BD4690BC704700BF4A
:1001800004000020080801400000002080B500AFF6
:10019000FFF78CFF00F010F8FFF7BEFF0246054B9B
:1001A0001A60044B1B6814229342F5D900F0A6F89C
:1001B000F2E700BF0800002090B482B000AF1A4BF5
:1001C0001B68194A43F0040313604FF000034FF01B
:1001D0000004C7E9003406E0D7E90034591C44F1B3
:1001E0000002C7E90012D7E9003441F288314FF02C
:1001F0000002A24208BF9942EED20C4B1B680B4B87
:1002000000221A60094B1B68084A43F0223313602E
:10021000074B1B68064A23F47F43136000BF08376F
:10022000BD4690BC704700BF181002400408014052
:100230000C08014090B486B000AF284B1B68274AD9
:1002400043F4007313600023FB751CE0234B1B6811
:10025000224A83F4807313604FF000034FF00004D0
:10026000C7E9023406E0D7E90234591C44F1000220
:10027000C7E90212D7E90234002C08BFFB2BF2D3E6
:10028000FB7D0133FB75FB7D952BDFD90023FB75CF
:100290001CE0124B1B68114A83F4807313604FF00B
:1002A00000034FF00004C7E9003406E0D7E900344A
:1002B000591C44F10002C7E90012D7E90034002CB0
:1002C00008BF7E2BF2D3FB7D0133FB75FB7D952BA5
:1002D000DFD900BF1837BD4690BC70470C080140FD
:1002E00080B400AF044B1B68034A23F4007313600F
:1002F00000BFBD4680BC70470C08014080B500AF10
:1003000006E0FFF797FF094B1B680133074A1360AC
:10031000064B1B683C229342F3D9044B00221A601F
:10032000FFF7DEFF00BF184680BD00BF0C000020B5
:08033000140000003C00000075
:0400000508000000EF
:00000001FF
