:020000040800F2
:10000000002800209D020008E9020008E90200081B
:10001000E9020008E9020008E90200080000000007
:10002000000000000000000000000000E9020008DD
:10003000E902000800000000E9020008E9020008E7
:10004000E9020008E9020008E9020008E9020008E4
:10005000E9020008E902000849020008E902000874
:10006000E9020008E9020008E9020008E9020008C4
:10007000E9020008E9020008E9020008E9020008B4
:10008000E9020008E9020008E9020008E9020008A4
:10009000E9020008E9020008E9020008E902000894
:1000A000E9020008E9020008E9020008E902000884
:1000B000E9020008E9020008E9020008E902000874
:1000C000E9020008E9020008E9020008E902000864
:1000D000E9020008E9020008E9020008E902000854
:1000E000E9020008E902000800000000E902000837
:1000F000E9020008E9020008E9020008E902000834
:10010000E9020008E9020008E9020008E902000823
:10011000E9020008E9020008E9020008E902000813
:10012000E9020008E9020008E9020008E902000803
:1001300080B400AF044B1B68034A43F0050313600F
:1001400000BFBD4680BC70471810024080B400AFAD
:100150000E4B1B680D4A23F4001313600B4B1B68F6
:100160000A4A43F400131360094B1B68084B002232
:100170001A60074B1B68064A43F0006343F0040310
:10018000136000BFBD4680BC704700BF040801403B
:100190000008014080B400AF0F4B0F4A1B6813608A
:1001A0000E4B1B680D4A43F0010313600C4B1B6898
:1001B0000B4A43F0010313600A4B1B68094A43F0E2
:1001C00001031360084B1B68074A43F040031360A8
:1001D00000BFBD4680BC70470800014000040140DC
:1001E000080401400C04014000E100E080B483B049
:1001F00000AF00237B60094B1B68084A83F400535F
:10020000136002E07B6801337B607B68044A9342A1
:10021000F8DD00BF0C37BD4680BC70470C080140BC
:10022000F824010080B400AF00BF064B1B681B68B8
:10023000C3F38013DBB2002BF7D100BFBD4680BCF7
:10024000704700BF0400002080B400AF074B1B685C
:10025000064A43F001031360054B1B68044A83F40C
:100260000053136000BFBD4680BC704714040140BA
:100270000C08014080B500AFFFF75AFFFFF766FF9B
:10028000FFF788FFFEE7EC020008000000200800EE
:100290000020080000200800002000000C488546CF
:1002A000AFF300800B480C490C4A002302E0D458FD
:1002B000C4500433C4188C42F9D3094A094C0023B2
:1002C00001E013600432A242FBD3FFF7D3FFFEE745
:1002D000002800200000002008000020EC02000898
:0C02E0000800002008000020FEE70000DD
:0802EC000C0801400808014064
:040000050800029D50
:00000001FF
