:020000040800F2
:1000000000280020D10200081D0300081D0300087D
:100010001D0300081D0300081D0300080000000068
:100020000000000000000000000000001D030008A8
:100030001D030008000000001D0300081D03000848
:100040001D0300081D0300081D0300081D03000810
:100050001D0300081D0300081D0300081D03000800
:100060001D0300081D0300081D0300081D030008F0
:100070001D0300081D0300081D0300081D030008E0
:100080001D0300081D0300081D0300081D030008D0
:100090001D0300081D0300081D0300081D030008C0
:1000A0001D0300081D0300081D0300081D030008B0
:1000B0001D0300081D0300081D0300081D030008A0
:1000C0001D0300081D0300081D0300081D03000890
:1000D0001D0300081D0300081D0300081D03000880
:1000E0001D0300081D030008000000001D03000898
:1000F0001D0300081D0300081D0300081D03000860
:100100001D0300081D0300081D0300081D0300084F
:100110001D0300081D0300081D0300081D0300083F
:100120001D0300081D0300081D0300081D0300082F
:1001300080B400AF044B1B68034A43F00D03136007
:1001400000BFBD4680BC70471810024080B400AFAD
:10015000174B1B68164B00221A60164B1B68154B79
:1001600000221A60144B1B68134B00221A60134BB9
:100170001B68124B00221A600D4B1B680C4A43F09F
:10018000200313600B4B1B680A4A43F400131360EF
:10019000094B1B68084A43F040031360074B1B6878
:1001A000064A43F48003136000BFBD4680BC70471D
:1001B000000C0140040C014000080140040801400B
:1001C00080B400AF044B1B68034A83F400531360F0
:1001D00000BFBD4680BC70470C0C014080B400AF2E
:1001E000044B1B68034A83F00203136000BFBD4643
:1001F00080BC70470C0C014080B400AF064B1B68FC
:1002000003F00203022B01D1012300E00023184672
:10021000BD4680BC704700BF0808014080B400AFF5
:10022000064B1B6803F40053B3F5005F01D10123B3
:1002300000E000231846BD4680BC70470808014016
:1002400080B400AF00BF054B1B6803F00203022B14
:10025000F9D000BFBD4680BC704700BF0808014010
:1002600080B483B000AF00237B6002E07B68013381
:100270007B607B6846F2A8129342F7DD00BF0C3723
:10028000BD4680BC704700BF80B500AFFFF750FF90
:10029000FFF75CFFFFF7B0FF0346002B03D0FFF72B
:1002A0009DFFFFF7CDFFFFF7B9FF0346002B01D0FD
:1002B000FFF786FFFFF7D4FFECE7200300080000FC
:1002C0000020080000200800002008000020000096
:1002D0000C488546AFF300800B480C490C4A0023BC
:1002E00002E0D458C4500433C4188C42F9D3094AEC
:1002F000094C002301E013600432A242FBD3FFF754
:10030000C3FFFEE7002800200000002008000020B6
:10031000200300080800002008000020FEE700007D
:080320000C080140080801402F
:04000005080002D11C
:00000001FF
