:020000040800F2
:1000000000280020D50A0008750A0008810A0008A7
:10001000870A00088D0A0008930A00080000000003
:10002000000000000000000000000000990A000825
:10003000A50A000800000000B10A0008BD0A000877
:100040001D0B00081D0B00081D0B00081D0B0008F0
:100050001D0B00081D0B00081D0B00081D0B0008E0
:100060001D0B00081D0B00081D0B00081D0B0008D0
:100070001D0B00081D0B00081D0B00081D0B0008C0
:100080001D0B00081D0B00081D0B00081D0B0008B0
:100090001D0B00081D0B00081D0B00081D0B0008A0
:1000A0001D0B00081D0B00081D0B00081D0B000890
:1000B0001D0B00081D0B0008000000001D0B0008B0
:1000C0001D0B000800000000000000001D0B0008D0
:1000D000000000001D0B00081D0B000800000000C0
:1000E0001D0B00081D0B00081D0B00080000000080
:1000F0000000000000000000000000000000000000
:0C01000000000000000000005FF808F1A3
:10010C0010B5054C237833B9044B13B10448AFF345
:10011C0000800123237010BD14000020000000009B
:10012C008C0B000808B5034B1BB103490348AFF314
:10013C00008008BD00000000180000208C0B000897
:10014C0080B485B000AFF860B9607A603B60BB6882
:10015C00072B15D8FB681B68BA6892000F2101FAAF
:10016C0002F2D2431A40FB681A60FB681A68BB683B
:10017C009B00796801FA03F31A43FB681A6020E0CC
:10018C00BB68072B1DD9BB680F2B1AD8FB685A68A4
:10019C00BB6803F18043083B9B000F2101FA03F37A
:1001AC00DB431A40FB685A60FB685A68BB6803F172
:1001BC008043083B9B00796801FA03F31A43FB6800
:1001CC005A607B68082B19D13B68002B0AD1FB685D
:1001DC00DA680121BB6801FA03F3DB431A40FB68C0
:1001EC00DA600BE03B68012B08D1FB68DA6801216F
:1001FC00BB6801FA03F31A43FB68DA6000BF1437DB
:10020C00BD4680BC704780B485B000AFF860B96063
:10021C007A60BB68072B15D8FB681B68BA6892001C
:10022C000F2101FA02F2D2431A40FB681A60FB68F4
:10023C001A68BB689B00796801FA03F31A43FB68E0
:10024C001A6020E0BB68072B1DD9BB680F2B1AD88E
:10025C00FB685A68BB6803F18043083B9B000F2185
:10026C0001FA03F3DB431A40FB685A60FB685A68D7
:10027C00BB6803F18043083B9B00796801FA03F3E8
:10028C001A43FB685A6000BF1437BD4680BC7047E8
:10029C0080B483B000AF786039607B68DB68012183
:1002AC003A6801FA02F21A437B68DA6000BF0C3735
:1002BC00BD4680BC704780B483B000AF78603960B5
:1002CC007B68DB6801213A6801FA02F2D2431A40DA
:1002DC007B68DA6000BF0C37BD4680BC704780B4C9
:1002EC0083B000AF786039607B68DB6801213A68C5
:1002FC0001FA02F25A407B68DA6000BF0C37BD4647
:10030C0080BC704780B483B000AF786039607B6884
:10031C009B6801213A6801FA02F2134018460C3727
:10032C00BD4680BC704780B483B000AF7860396044
:10033C007B68DA683B681A437B68DA6000BF0C376D
:10034C00BD4680BC704780B483B000AF7860396024
:10035C007B68DA683B68DB431A407B68DA6000BF75
:10036C000C37BD4680BC704780B483B000AF78605A
:10037C0039607B681B681B0C1B047A6813607B68F4
:10038C005B681B0C1B047A6853607B683A681A60C4
:10039C007B683A685A6000BF0C37BD4680BC70471A
:1003AC0080B483B000AF78607B689B6818460C37CC
:1003BC00BD4680BC7047000080B582B000AF78604D
:1003CC0039607B68043B032B2ED801A252F823F032
:1003DC00ED030008FF0300081104000823040008C3
:1003EC0004213868FFF754FF07213868FFF763FFD3
:1003FC001BE005213868FFF74BFF04213868FFF735
:10040C005AFF12E006213868FFF742FF05213868D1
:10041C00FFF751FF09E007213868FFF739FF062184
:10042C003868FFF748FF00E000BF00BF0837BD4643
:10043C0080BD00BF80B582B000AF7860396000BF6E
:10044C007868FFF7ADFF02463B689342F8D000BFD7
:10045C000837BD4680BD000080B582B000AF786023
:10046C00F0217868FFF76FFF79680420FFF7A4FF8D
:10047C007868FFF795FF0246724B1A607868FFF7B1
:10048C008FFF0346112B05D111217868FFF7D2FF9E
:10049C003723D2E07868FFF783FF0346122B05D190
:1004AC0012217868FFF7C6FF3423C6E07868FFF79F
:1004BC0077FF0346142B05D114217868FFF7BAFF98
:1004CC003123BAE07868FFF76BFF0346182B05D190
:1004DC0018217868FFF7AEFF6323AEE0796805203A
:1004EC00FFF76AFF7868FFF75BFF0246554B1A600F
:1004FC007868FFF755FF0346212B05D12121786839
:10050C00FFF798FF382398E07868FFF749FF034618
:10051C00222B05D122217868FFF78CFF35238CE044
:10052C007868FFF73DFF0346242B05D1242178681A
:10053C00FFF780FF322380E07868FFF731FF034636
:10054C00282B05D128217868FFF774FF302374E03D
:10055C0079680620FFF730FF7868FFF721FF024625
:10056C00384B1A607868FFF71BFF0346412B05D107
:10057C0041217868FFF75EFF39235EE07868FFF76A
:10058C000FFF0346422B05D142217868FFF752FF3B
:10059C00362352E07868FFF703FF0346442B05D15E
:1005AC0044217868FFF746FF332346E07868FFF76D
:1005BC00F7FE0346482B05D148217868FFF73AFF30
:1005CC003D233AE079680720FFF7F6FE7868FFF7DD
:1005DC00E7FE02461B4B1A607868FFF7E1FE034604
:1005EC00812B05D181217868FFF724FF2F2324E08C
:1005FC007868FFF7D5FE0346822B05D182217868F7
:10060C00FFF718FF582318E07868FFF7C9FE034678
:10061C00842B05D184217868FFF70CFF2D230CE087
:10062C007868FFF7BDFE0346882B05D188217868D2
:10063C00FFF700FF2B2300E0002318460837BD46C8
:10064C0080BD00BF3000002080B582B000AF0D210E
:10065C000A48FFF71DFE0D210848FFF72CFE00236A
:10066C007B6002E07B6801337B607B68B3F57A7F4B
:10067C00F8DD00BF0837BD4680BD00BF001001404B
:10068C0080B500AFFF210D48FFF75DFE02210B483E
:10069C00FFF749FE0F210A48FFF70DFE0E2108480F
:1006AC00FFF709FE0F210648FFF705FE0E2104484F
:1006BC00FFF701FEFFF7C8FF00BF80BD000C014033
:1006CC000010014080B584B000AF0346FB710B46AF
:1006DC00BB7113467B710023FB730023BB73002398
:1006EC007B73FB79082B02D12023FB7304E0FB798D
:1006FC000A2B01D12423FB73BB79012B02D12023BC
:10070C00BB7304E0BB79022B01D12823BB737B792B
:10071C00042B02D120237B7304E07B79082B01D1BD
:10072C0030237B737B79042B01D1FFF7A9FFFF21C9
:10073C000D48FFF708FEFA7BBB7B1343DAB27B7BD9
:10074C001343DBB219460848FFF7EDFD0F210748AC
:10075C00FFF7B1FD0E210548FFF7ADFDFFF774FF64
:10076C0000BF1037BD4680BD000C01400010014099
:10077C0080B582B000AF7860FF210A48FFF7E3FD37
:10078C0079680848FFF7CFFD0F210748FFF793FD65
:10079C000E210548FFF78FFDFFF756FF00BF083706
:1007AC00BD4680BD000C01400010014080B582B0F8
:1007BC0000AF03460A46FB711346BB71FB79012B54
:1007CC0016D1FF211948FFF7BEFDBB7963F07F03FB
:1007DC00DBB219461548FFF7A6FD0F211448FFF7A9
:1007EC006AFD0E211248FFF766FDFFF72DFF18E09A
:1007FC00FB79022B15D1FF210C48FFF7A4FDBB7927
:10080C0063F03F03DBB219460848FFF78CFD0F215C
:10081C000748FFF750FD0E210548FFF74CFDFFF789
:10082C0013FF00BF0837BD4680BD00BF000C014060
:10083C000010014080B582B000AF0346FB71FF2170
:10084C000A48FFF780FDFB7919460848FFF76BFD56
:10085C000F210748FFF71CFD0E210548FFF72BFD64
:10086C00FFF7F2FE00BF0837BD4680BD000C01400B
:10087C000010014080B584B000AF78600023FB60AD
:10088C0018E0FF211048FFF75EFDFB687A681344FF
:10089C001B7819460C48FFF746FD0F210B48FFF754
:1008AC00F7FC0E210948FFF706FDFFF7CDFEFB68AC
:1008BC000133FB60FB687A6813441B78002BE0D192
:1008CC0000BF1037BD4680BD000C01400010014038
:1008DC0080B485B000AF78600023FB600DE000238E
:1008EC00BB6002E0BB680133BB60BB6840F2112205
:1008FC009342F7DDFB680133FB60FA687B689A4230
:10090C00EDDB00BF1437BD4680BC704780B400AF30
:10091C00044B9B69034A43F01D03936100BFBD4622
:10092C0080BC70470010024080B500AF4FF0223100
:10093C002548FFF719FD02220D212448FFF763FC1F
:10094C0002220E212148FFF75EFC02220F211F48D4
:10095C00FFF759FC002308220E211D48FFF7F0FB7E
:10096C00002308220F211A48FFF7EAFB0023082274
:10097C0000211748FFF7E4FB00230822012114484B
:10098C00FFF7DEFB0023082202211148FFF7D8FBFA
:10099C000023082203210E48FFF7D2FB0222042178
:1009AC000B48FFF730FC022205210948FFF72BFC0E
:1009BC00022206210648FFF726FC022207210448E2
:1009CC00FFF721FC00BF80BD000C0140001001406E
:1009DC000008014080B582B000AFFFF797FF64209C
:1009EC00FFF776FFFFF7A0FF082202210820FFF790
:1009FC0069FE0D20FFF7BCFE1848FFF73BFFC02037
:100A0C00FFF7B6FE1648FFF727FD0346FB71FB798F
:100A1C00632B03D11420FFF7ABFEF3E7FB79002B1C
:100A2C0008D005210220FFF7C1FEFB791846FFF71D
:100A3C0001FFE7E70E210A48FFF764FC0346002B91
:100A4C00E0D000BF0E210648FFF75CFC0346002BEC
:100A5C00F8D10D210348FFF742FCD3E7000000203A
:100A6C0000080140000C014080B400AF00BFBD463F
:100A7C0080BC704780B400AFFEE780B400AFFEE7E7
:100A8C0080B400AFFEE780B400AFFEE780B400AFE7
:100A9C0000BFBD4680BC704780B400AF00BFBD46F0
:100AAC0080BC704780B400AF00BFBD4680BC7047AF
:100ABC0080B500AF00F02EF800BF80BD80B400AF51
:100ACC0000BFBD4680BC70470C480D490D4A002341
:100ADC0002E0D458C4500433C4188C42F9D30A4AE7
:100AEC000A4C002301E013600432A242FBD3FFF74F
:100AFC00E5FF00F021F8FFF76DFF704700000020C4
:100B0C0014000020AC0B000814000020380000205A
:100B1C00FEE7000080B400AF054B1B781A46054B6E
:100B2C001B681344034A136000BFBD4680BC70476A
:100B3C00100000203400002070B500250C4E0D4C28
:100B4C00A41BA410A54209D100F01AF800250A4EE6
:100B5C000A4CA41BA410A54205D170BD56F8253033
:100B6C0098470135EEE756F8253098470135F2E7FE
:100B7C00A40B0008A40B0008A40B0008A80B000889
:100B8C00F8B500BFF8BC08BC9E467047F8B500BF6E
:080B9C00F8BC08BC9E4670473E
:040BA4003101000813
:040BA8000D01000833
:100BAC0053544D333246313033433620534F430088
:040BBC000100000034
:0400000508000AD510
:00000001FF
