:10000000040400201100000095000000950000008D
:1000100080B588B000AF1A4A1A4BD31ABB601A4A8F
:100020001A4BD31A7B601A4BFB61164BBB61174B03
:100030007B6100233B610AE0FA69531CFB61BB69E9
:10004000591CB96112781A703B6901333B613A69F6
:10005000BB689A42F0D30023FB6007E07B695A1C1F
:100060007A6100221A70FB680133FB60FA687B68D2
:100070009A42F3D300F014F800BF2037BD4680BD8C
:1000800004000020000000200404002004000020E0
:100090005C01000080B500AFFFF7BAFF00BF80BD74
:1000A00080B500AF00F033F80C4B1B680C4A1268A7
:1000B00011460A4A0B4313604CF2503000F014F81A
:1000C000064B1B68064A1268D2431146034A0B408E
:1000D0001360044800F008F8E6E700BFFC53024054
:1000E00000000020801A060080B485B000AF786060
:1000F0000023FB6002E0FB680133FB60FB687A6869
:100100009A42F8D800BF1437BD4680BC704780B50E
:1001100000AF0E4B1B680D4A43F0200313604CF2F6
:100120005030FFF7E1FF0A4B1B680A4A126811467C
:10013000074A0B431360084B1B68064A12681146B6
:10014000054A0B43136000BF80BD00BF08E60F40A7
:0C01500000540240000000201C5502403A
:04015C00020000009D
:00000001FF
