:020000040800F2
:1000000000280020C91200086912000875120008B3
:100010007B1200088112000887120008000000000F
:100020000000000000000000000000008D12000829
:100030009912000800000000A5120008B112000883
:100040001113000811130008111300081113000800
:10005000111300081113000891060008C9060008D2
:10006000010700083907000871070008111300088C
:1000700011130008111300081113000811130008D0
:1000800011130008111300081113000811130008C0
:10009000111300081113000811130008A907000824
:1000A00011130008111300081113000811130008A0
:1000B00011130008111300080000000011130008BC
:1000C00011130008000000000000000011130008D8
:1000D00000000000111300081113000800000000C8
:1000E000790800081113000811130008000000002F
:1000F0000000000000000000000000000000000000
:0C01000000000000000000005FF808F1A3
:10010C0010B5054C237833B9044B13B10448AFF345
:10011C0000800123237010BD180000200000000097
:10012C008013000808B5034B1BB103490348AFF318
:10013C00008008BD000000001C0000208013000897
:10014C0080B483B000AF03460A46FB711346BB7103
:10015C00234BDA68FB79012101FA03F3DB432049D5
:10016C001340CB601E4B9A68FB79012101FA03F313
:10017C00DB431B4913408B60BB79002B09D1184B17
:10018C00DA68FB79012101FA03F315491343CB60BB
:10019C0021E0BB79012B09D1114B9A68FB79012124
:1001AC0001FA03F30E4913438B6014E0BB79022B65
:1001BC0011D10B4BDA68FB79012101FA03F30849E1
:1001CC001343CB60064B9A68FB79012101FA03F3C8
:1001DC00034913438B6000BF0C37BD4680BC70478E
:1001EC000004014080B483B000AF0346FB71074BA1
:1001FC001A68FB79012101FA03F3044913430B60DC
:10020C0000BF0C37BD4680BC704700BF00040140E6
:10021C0080B582B000AF03463A60FB710B46BB71F0
:10022C00FB791846FFF7DEFFBA79FB7911461846C1
:10023C00FFF786FFFB7906493A6841F82320FB79E2
:10024C00184600F007F800BF0837BD4680BD00BF58
:10025C003400002080B483B000AF0346FB71FB79FF
:10026C00002B06D1264B1B68254A43F04003136034
:10027C0040E0FB79012B06D1214B1B68204A43F04F
:10028C008003136036E0FB79022B06D11C4B1B68F4
:10029C001B4A43F4807313602CE0FB79032B06D1CB
:1002AC00174B1B68164A43F40073136022E0FB796A
:1002BC00042B06D1124B1B68114A43F48063136064
:1002CC0018E0FB79042B09D9FB79092B06D80C4BC8
:1002DC001B680B4A43F4000313600BE0FB79092BFA
:1002EC0008D9FB790F2B05D8064B1B68054A43F43C
:1002FC008073136000BF0C37BD4680BC704700BFD5
:10030C0000E100E004E100E080B483B000AF0346FC
:10031C00FB71FB79002B06D1264B1B68254A43F059
:10032C004003136040E0FB79012B06D1214B1B6885
:10033C00204A43F08003136036E0FB79022B06D190
:10034C001C4B1B681B4A43F4807313602CE0FB7935
:10035C00032B06D1174B1B68164A43F4007313602A
:10036C0022E0FB79042B06D1124B1B68114A43F493
:10037C008063136018E0FB79042B09D9FB79092BF6
:10038C0006D80C4B1B680B4A43F4000313600BE0BC
:10039C00FB79092B08D9FB790F2B05D8064B1B6869
:1003AC00054A43F48073136000BF0C37BD4680BC14
:1003BC00704700BF80E100E084E100E080B584B0CC
:1003CC0000AFF8607B600B46FB721346BB72F97A88
:1003DC0000230422F86800F0C5FAFB7A032B43D8FB
:1003EC007A4B7A4A9B689360FB68794A93420AD1AC
:1003FC00764B764A9B689360B97AFB7A7A68184692
:10040C00FFF706FFDEE0FB68724A934211D16F4B97
:10041C009B68FA7A9200012101FA02F211466B4AAA
:10042C000B439360B97AFB7A7A681846FFF7F0FEB3
:10043C00C8E0FB68684A934240F0C480FB7A012B09
:10044C0000F2C080614B9B68FA7A9200032101FA9A
:10045C0002F211465D4A0B439360B97AFB7A7A68D3
:10046C001846FFF7D5FEADE0FB7A032B2DD9FB7AAE
:10047C00072B2AD8554B554ADB68D360FB68544A86
:10048C0093420AD1514B514ADB68D360B97AFB7A5B
:10049C007A681846FFF7BCFE91E0FB684D4A934220
:1004AC0040F08D80494BDB68FA7A043A92000121C6
:1004BC0001FA02F21146454A0B43D360B97AFB7A32
:1004CC007A681846FFF7A4FE79E0FB7A072B2CD943
:1004DC00FB7A0B2B29D83D4B3C4A1B691361FB68FB
:1004EC003B4A93420AD1394B384A1B691361B97A9A
:1004FC00FB7A7A681846FFF78BFE62E0FB68354A98
:10050C0093425ED1314B1B69FA7A083A9200012171
:10051C0001FA02F211462D4A0B431361B97AFB7AA8
:10052C007A681846FFF774FE4BE0FB7A0B2B49D91F
:10053C00FB7A0F2B46D8254B244A5B695361FB6829
:10054C00234A93420AD1214B204A5B695361B97A01
:10055C00FB7A7A681846FFF75BFE33E0FB681D4AAE
:10056C00934212D1194B5B69FA7A0C3A9200012131
:10057C0001FA02F21146154A0B435361B97AFB7A20
:10058C007A681846FFF744FE1CE0FB68134A934256
:10059C0018D1FB7A0C2B15D00C4B5B69FA7A0C3A00
:1005AC009200022101FA02F21146084A0B435361F0
:1005BC00B97AFB7A7A681846FFF72AFE02E000BF88
:1005CC0000E000BF00BF1037BD4680BD00000140F9
:1005DC0000080140000C01400014014000100140D3
:1005EC0080B500AF144B00225A60134B00225A60A6
:1005FC00114B0022DA60104B00229A600E4B002245
:10060C001A610D4B4FF0FF325A610020FFF77CFE50
:10061C000120FFF779FE0220FFF776FE0320FFF79B
:10062C0073FE0420FFF770FE0520FFF76DFE0A2015
:10063C00FFF76AFE00BF80BD0004014080B582B0A8
:10064C0000AF03463960FB71FB790F2B12D8FB7995
:10065C000A493A6841F82320FB791846FFF7C2FD96
:10066C00FB791846FFF7F6FDFB79054A012101FAE3
:10067C0003F3136100BF0837BD4680BD3400002072
:10068C000004014080B500AF094B5B6903F0010326
:10069C00002B0BD0064B5B69054A43F001035361F9
:1006AC00044B00221A60044B1B68984700BF80BDA6
:1006BC0000040140000000203400002080B500AF91
:1006CC00094B5B6903F00203002B0BD0064B5B69F3
:1006DC00054A43F002035361044B01221A60044B98
:1006EC005B68984700BF80BD0004014000000020FB
:1006FC003400002080B500AF094B5B6903F00403A4
:10070C00002B0BD0064B5B69054A43F00403536185
:10071C00044B02221A60044B9B68984700BF80BDB3
:10072C0000040140000000203400002080B500AF20
:10073C00094B5B6903F00803002B0BD0064B5B697C
:10074C00054A43F008035361044B03221A60044B1F
:10075C00DB68984700BF80BD00040140000000200A
:10076C003400002080B500AF094B5B6903F0100327
:10077C00002B0BD0074B04221A60054B5B69044A13
:10078C0043F010035361044B1B69984700BF80BDB5
:10079C0000040140000000203400002080B500AFB0
:1007AC002F4B5B6903F02003002B0CD02C4B5B69A7
:1007BC002B4A43F0200353612A4B05221A602A4B23
:1007CC005B6998474AE0264B5B6903F04003002BBA
:1007DC000CD0234B5B69224A43F040035361214BFD
:1007EC0006221A60204B9B69984737E01C4B5B69CB
:1007FC0003F08003002B0CD0194B5B69184A43F0B3
:10080C0080035361174B07221A60174BDB6998471B
:10081C0024E0134B5B6903F48073002B0CD0104B5A
:10082C005B690F4A43F4807353610E4B08221A60C4
:10083C000D4B1B6A984711E0094B5B6903F400737D
:10084C00002B0BD0064B5B69054A43F400735361D4
:10085C00044B09221A60044B5B6A984700BF80BDA9
:10086C0000040140000000203400002080B500AFDF
:10087C00394B5B6903F48063002B0CD0364B5B69FE
:10088C00354A43F480635361344B0A221A60344B6B
:10089C009B6A98475DE0304B5B6903F40063002B67
:1008AC000CD02D4B5B692C4A43F4006353612B4BEA
:1008BC000B221A602A4BDB6A98474AE0264B5B698D
:1008CC0003F48053002B0CD0234B5B69224A43F476
:1008DC0080535361214B0C221A60214B1B6B9847A0
:1008EC0037E01D4B5B6903F40053002B0CD01A4B03
:1008FC005B69194A43F400535361184B0D221A607B
:10090C00174B5B6B984724E0134B5B6903F48043F4
:10091C00002B0CD0104B5B690F4A43F4804353619E
:10092C000E4B0E221A600E4B9B6B984711E00A4B34
:10093C005B6903F40043002B0BD0074B5B69064A41
:10094C0043F400435361054B0F221A60044BDB6BDD
:10095C00984700BF80BD00BF00040140000000208C
:10096C003400002080B485B000AFF860B9607A60C4
:10097C003B60BB68072B15D8FB681B68BA689200F4
:10098C000F2101FA02F2D2431A40FB681A60FB688D
:10099C001A68BB689B00796801FA03F31A43FB6879
:1009AC001A6020E0BB68072B1DD9BB680F2B1AD827
:1009BC00FB685A68BB6803F18043083B9B000F211E
:1009CC0001FA03F3DB431A40FB685A60FB685A6870
:1009DC00BB6803F18043083B9B00796801FA03F381
:1009EC001A43FB685A607B68082B19D13B68002BB3
:1009FC000AD1FB68DA680121BB6801FA03F3DB4317
:100A0C001A40FB68DA600BE03B68012B08D1FB68ED
:100A1C00DA680121BB6801FA03F31A43FB68DA6058
:100A2C0000BF1437BD4680BC704780B485B000AFA2
:100A3C00F860B9607A60BB68072B15D8FB681B6837
:100A4C00BA6892000F2101FA02F2D2431A40FB68F5
:100A5C001A60FB681A68BB689B00796801FA03F39B
:100A6C001A43FB681A6020E0BB68072B1DD9BB68D2
:100A7C000F2B1AD8FB685A68BB6803F18043083BFC
:100A8C009B000F2101FA03F3DB431A40FB685A6009
:100A9C00FB685A68BB6803F18043083B9B0079688C
:100AAC0001FA03F31A43FB685A6000BF1437BD46C2
:100ABC0080BC704780B483B000AF7860396001228D
:100ACC003B689A407B685A6100BF0C37BD4680BCBE
:100ADC00704780B483B000AF786039607B68DB68A6
:100AEC0001213A6801FA02F21A437B68DA6000BF0E
:100AFC000C37BD4680BC704780B483B000AF7860C3
:100B0C0039607B68DB6801213A6801FA02F2D24352
:100B1C001A407B68DA6000BF0C37BD4680BC70475A
:100B2C0080B483B000AF786039607B68DB680121EA
:100B3C003A6801FA02F25A407B68DA6000BF0C375F
:100B4C00BD4680BC704780B483B000AF786039601C
:100B5C007B68DA683B681A437B68DA6000BF0C3745
:100B6C00BD4680BC704780B483B000AF78603960FC
:100B7C007B68DA683B68DB431A407B68DA6000BF4D
:100B8C000C37BD4680BC704780B483B000AF786032
:100B9C0039607B681B681B0C1B047A6813607B68CC
:100BAC005B681B0C1B047A6853607B683A681A609C
:100BBC007B683A685A6000BF0C37BD4680BC7047F2
:100BCC0080B582B000AF0D210A48FFF782FF0D21DE
:100BDC000848FFF791FF00237B6002E07B6801333C
:100BEC007B607B68B3F57A7FF8DD00BF0837BD46C4
:100BFC0080BD00BF0010014080B500AFFF210D4843
:100C0C00FFF7B1FF02210B48FFF79DFF0F210A48A8
:100C1C00FFF772FF0E210848FFF76EFF0F21064801
:100C2C00FFF76AFF0E210448FFF766FFFFF7C8FFC6
:100C3C0000BF80BD000C01400010014080B584B0A5
:100C4C0000AF0346FB710B46BB7113467B7100234F
:100C5C00FB730023BB7300237B73FB79082B02D13E
:100C6C002023FB7304E0FB790A2B01D12423FB73B3
:100C7C00BB79012B02D12023BB7304E0BB79022B7F
:100C8C0001D12823BB737B79042B02D120237B73E6
:100C9C0004E07B79082B01D130237B737B79042B07
:100CAC0001D1FFF7A9FFFF210D48FFF75CFFFA7B8D
:100CBC00BB7B1343DAB27B7B1343DBB21946084888
:100CCC00FFF741FF0F210748FFF716FF0E210548DC
:100CDC00FFF712FFFFF774FF00BF1037BD4680BD52
:100CEC00000C01400010014080B582B000AF78606C
:100CFC00FF210A48FFF737FF79680848FFF723FF01
:100D0C000F210748FFF7F8FE0E210548FFF7F4FE08
:100D1C00FFF756FF00BF0837BD4680BD000C0140F1
:100D2C000010014080B582B000AF03460A46FB714B
:100D3C001346BB71FB79012B16D1FF211948FFF724
:100D4C0012FFBB7963F07F03DBB219461548FFF73E
:100D5C00FAFE0F211448FFF7CFFE0E211248FFF7C1
:100D6C00CBFEFFF72DFF18E0FB79022B15D1FF21ED
:100D7C000C48FFF7F8FEBB7963F03F03DBB2194672
:100D8C000848FFF7E0FE0F210748FFF7B5FE0E21DC
:100D9C000548FFF7B1FEFFF713FF00BF0837BD464C
:100DAC0080BD00BF000C01400010014080B584B034
:100DBC0000AF78600023FB6018E0FF211048FFF7BC
:100DCC00D2FEFB687A6813441B7819460C48FFF76F
:100DDC00BAFE0F210B48FFF77CFE0E210948FFF7E6
:100DEC008BFEFFF7EDFEFB680133FB60FB687A6856
:100DFC0013441B78002BE0D100BF1037BD4680BDDB
:100E0C00000C01400010014080B485B000AF786048
:100E1C000023FB600DE00023BB6002E0BB680133E4
:100E2C00BB60BB6840F211229342F7DDFB680133D3
:100E3C00FB60FA687B689A42EDDB00BF1437BD4655
:100E4C0080BC704780B582B000AF00237B6009E0A6
:100E5C000E210A48FFF764FE6420FFF7D5FF7B687C
:100E6C0001337B607B68062BF2DD0E210348FFF714
:100E7C0021FE00BF0837BD4680BD00BF000C0140FD
:100E8C0080B400AF00BFBD4680BC704780B582B057
:100E9C0000AF00237B6009E00F210A48FFF740FEFA
:100EAC006420FFF7B1FF7B6801337B607B68062B06
:100EBC00F2DD0F210348FFF7FDFD00BF0837BD46EB
:100ECC0080BD00BF000C014080B400AF044B9B6997
:100EDC00034A43F03D03936100BFBD4680BC70479D
:100EEC000010024080B500AF4FF022310948FFF7E7
:100EFC004BFE02220D210848FFF797FD02220E211E
:100F0C000548FFF792FD02220F210348FFF78DFDE4
:100F1C0000BF80BD000C01400010014080B500AF47
:100F2C00FFF7D2FF6420FFF76FFFFFF7DBFF08220C
:100F3C0002210820FFF782FE0C20FFF7D5FEAD48FA
:100F4C00FFF734FFC020FFF7CFFEAB48FFF72EFFB3
:100F5C00FFF746FBA9490320FFF770FBA84B0022C3
:100F6C000021A848FFF72AFAA74B00220121A54827
:100F7C00FFF724FAA44B01220221A248FFF71EFA24
:100F8C00A14B002203219F48FFF718FA9E4B012228
:100F9C0004219C48FFF712FA9B4B0122052199482A
:100FAC00FFF70CFA984B002206219648FFF706FA39
:100FBC00954B002207219348FFF700FA924B012230
:100FCC0008219248FFF7FAF98F4B012209218F482B
:100FDC00FFF7F4F98C4B00220A218C48FFF7EEF94D
:100FEC00894B00220B218948FFF7E8F9844B00223A
:100FFC0000218748FFF7E2F9834B02220121844844
:10100C00FFF7DCF9834B1B680F2B00F2E38001A286
:10101C0052F823F0611000087910000891100008B4
:10102C00A9100008C1100008D9100008F110000820
:10103C00091100082111000839110008511100088C
:10104C00691100088111000899110008B1110008FC
:10105C00C91100080E210220FFF764FE6D4B4FF002
:10106C00FF321A606C48FFF7A1FEBFE00E21022090
:10107C00FFF758FE674B4FF0FF321A606748FFF7D7
:10108C0095FEB3E00E210220FFF74CFE614B4FF0B2
:10109C00FF321A606248FFF789FEA7E00E2102209A
:1010AC00FFF740FE5B4B4FF0FF321A605D48FFF7D5
:1010BC007DFE9BE00E210220FFF734FE554B4FF0D6
:1010CC00FF321A605848FFF771FE8FE00E210220A4
:1010DC00FFF728FE4F4B4FF0FF321A605348FFF7D3
:1010EC0065FE83E00E210220FFF71CFE494B4FF0FA
:1010FC00FF321A604E48FFF759FE77E00E210220AE
:10110C00FFF710FE434B4FF0FF321A604948FFF7D0
:10111C004DFE6BE00E210220FFF704FE3D4B4FF01D
:10112C00FF321A604448FFF741FE5FE00E210220B7
:10113C00FFF7F8FD374B4FF0FF321A603F48FFF7CF
:10114C0035FE53E00E210220FFF7ECFD314B4FF042
:10115C00FF321A603A48FFF729FE47E00E210220C1
:10116C00FFF7E0FD2B4B4FF0FF321A603548FFF7CD
:10117C001DFE3BE00E210220FFF7D4FD254B4FF066
:10118C00FF321A603048FFF711FE2FE00E210220CB
:10119C00FFF7C8FD1F4B4FF0FF321A602B48FFF7CB
:1011AC0005FE23E00E210220FFF7BCFD194B4FF08A
:1011BC00FF321A602648FFF7F9FD17E00E210220D6
:1011CC00FFF7B0FD134B4FF0FF321A602148FFF7C9
:1011DC00EDFD0BE00E210220FFF7A4FD0D4B4FF0AF
:1011EC00FF321A601C48FFF7E1FD00BFC820FFF773
:1011FC000BFE07E70400002098130008990E000866
:10120C00510E0008000801408D0E0008000C014032
:10121C000014014000000020A8130008AC130008C3
:10122C00B0130008B4130008B8130008BC1300086E
:10123C00C0130008C4130008C8130008CC1300081E
:10124C00D0130008D4130008D8130008DC130008CE
:10125C00E0130008E4130008E813000880B400AFA2
:10126C0000BFBD4680BC704780B400AFFEE780B4C1
:10127C0000AFFEE780B400AFFEE780B400AFFEE73E
:10128C0080B400AF00BFBD4680BC704780B400AFD7
:10129C0000BFBD4680BC704780B400AF00BFBD46E8
:1012AC0080BC704780B500AF00F02EF800BF80BD49
:1012BC0080B400AF00BFBD4680BC70470C480D49E0
:1012CC000D4A002302E0D458C4500433C4188C4295
:1012DC00F9D30A4A0A4C002301E013600432A242FB
:1012EC00FBD3FFF7E5FF00F021F8FFF717FE70477F
:1012FC000000002018000020F41300081800002043
:10130C0074000020FEE7000080B400AF054B1B7892
:10131C001A46054B1B681344034A136000BFBD46B5
:10132C0080BC7047140000207000002070B50025B0
:10133C000C4E0D4CA41BA410A54209D100F01AF8B8
:10134C0000250A4E0A4CA41BA410A54205D170BD61
:10135C0056F8253098470135EEE756F82530984772
:10136C000135F2E7EC130008EC130008EC1300084D
:10137C00F0130008F8B500BFF8BC08BC9E467047D7
:0C138C00F8B500BFF8BC08BC9E467047D6
:1013980045787465726E616C204C696E650000005A
:1013A80030200000312000003220000033200000EF
:1013B80034200000352000003620000037200000CF
:1013C80038200000392000003130000031310000A1
:1013D8003132000031330000313400003135000073
:0413E8002D2D0000A7
:0413EC0031010008C3
:0413F0000D010008E3
:1013F400FFFFFFFF53544D33324631303343362021
:08140400534F430001000000FA
:04000005080012C914
:00000001FF
