:020000040800F2
:1000000000280020E9020008350300083503000835
:100010003503000835030008350300080000000020
:100020000000000000000000000000003503000890
:100030003503000800000000350300083503000800
:1000400035030008350300083503000835030008B0
:1000500035030008350300083503000835030008A0
:100060003503000835030008350300083503000890
:100070003503000835030008350300083503000880
:100080003503000835030008350300083503000870
:100090003503000835030008350300083503000860
:1000A0003503000835030008350300083503000850
:1000B0003503000835030008350300083503000840
:1000C0003503000835030008350300083503000830
:1000D0003503000835030008350300083503000820
:1000E0003503000835030008000000003503000850
:1000F0003503000835030008350300083503000800
:1001000035030008350300083503000835030008EF
:1001100035030008350300083503000835030008DF
:1001200035030008350300083503000835030008CF
:1001300080B400AF044B1B68034A43F00D03136007
:1001400000BFBD4680BC70471810024080B400AFAD
:10015000174B1B68164B00221A60164B1B68154B79
:1001600000221A60144B1B68134B00221A60134BB9
:100170001B68124B00221A600D4B1B680C4A43F09F
:10018000200313600B4B1B680A4A43F400131360EF
:10019000084B1B68074A43F000731360054B1B684C
:1001A000044A43F00053136000BFBD4680BC704753
:1001B000000C0140040C014000080140040801400B
:1001C00080B400AF044B1B68034A83F400531360F0
:1001D00000BFBD4680BC70470C0C014080B400AF2E
:1001E000044B1B68034A83F48043136000BFBD4681
:1001F00080BC70470C0C014080B400AF044B1B68FE
:10020000034A83F00203136000BFBD4680BC704701
:100210000C0C014080B582B000AF0023FB710BE0F5
:100220000C4B1B680B4A83F400431360022000F060
:1002300013F8FB790133FB71FB79632BF0D9054B84
:100240001B68044A23F40043136000BF0837BD460F
:1002500080BD00BF0C0C014080B485B000AF786059
:100260000023BB600BE00023FB6002E0FB6801336E
:10027000FB60FB68FA2BF9DDBB680133BB60BA6831
:100280007B689A42EFDD00BF1437BD4680BC7047E3
:1002900080B500AFFFF74CFFFFF758FFFFF7ACFF4B
:1002A0004FF4FA70FFF7D8FFFFF7A6FFFFF788FFBC
:1002B0004FF4FA70FFF7D0FFFFF782FFFFF78EFFD2
:1002C0004FF4FA70FFF7C8FFFFF788FFFFF7A2FFB0
:1002D000E4E73803000800000020080000200800C0
:1002E00000200800002000000C488546AFF3008085
:1002F0000B480C490C4A002302E0D458C450043384
:10030000C4188C42F9D3094A094C002301E0136058
:100310000432A242FBD3FFF7BBFFFEE70028002018
:10032000000000200800002038030008080000201A
:0803300008000020FEE70000B8
:080338000C0801400808014017
:04000005080002E904
:00000001FF
